:100000000C9462000C948A000C948A000C948A0070
:100010000C948A000C948A000C948A000C948A0038
:100020000C948A000C948A000C948A000C948A0028
:100030000C948A000C948A000C948A000C948A0018
:100040000C940E030C948A000C94DC020C94B602FF
:100050000C948A000C948A000C948A000C948A00F8
:100060000C948A000C948A00000000080002010031
:100070000003040700000000000000007E306D79DE
:10008000335B5F707F7B00000000250028002B00A1
:1000900000000000240027002A00040404040404D3
:1000A0000404020202020202030303030303010227
:1000B00004081020408001020408102001020408F6
:1000C0001020580311241FBECFEFD8E0DEBFCDBFF4
:1000D00011E0A0E0B1E0E8ECFDE002C005900D9277
:1000E000A431B107D9F721E0A4E1B1E001C01D922C
:1000F000A53FB207E1F710E0C2E6D0E004C02197C7
:10010000FE010E94DC06C136D107C9F70E94A30395
:100110000C94E2060C94000090E0FC01E255FF4FC5
:10012000249186569F4FFC018491882399F090E09A
:10013000880F991FFC01E057FF4FA591B491FC0176
:10014000EA57FF4F859194918FB7F894EC91E22B89
:10015000EC938FBF0895AF92BF92CF92DF92EF9250
:10016000FF920F931F93CF93DF936C017B018B0161
:10017000040F151FEB015E01AE18BF08C017D107B1
:1001800059F06991D601ED91FC910190F081E02D3B
:10019000C6010995892B79F7C501DF91CF911F9190
:1001A0000F91FF90EF90DF90CF90BF90AF900895A8
:1001B000FC01538D448D252F30E0842F90E0821B6D
:1001C000930B541710F0CF96089501970895FC01F2
:1001D000918D828D981761F0A28DAE0FBF2FB11D4A
:1001E0005D968C91928D9F5F9F73928F90E00895A2
:1001F0008FEF9FEF0895FC01918D828D981731F05C
:10020000828DE80FF11D858D90E008958FEF9FEFAF
:100210000895FC01918D228D892F90E0805C9F4F85
:10022000821B91098F739927089580E591E00E94C0
:10023000090121E0892B09F420E0822F089580E054
:1002400090E0892B29F00E94150181110C94000087
:100250000895FC01A48DA80FB92FB11DA35ABF4F5B
:100260002C91848D90E001968F739927848FA689B5
:10027000B7892C93A089B1898C91837080648C9309
:10028000938D848D981306C00288F389E02D8081B8
:100290008F7D80830895EF92FF920F931F93CF93EA
:1002A000DF93EC0181E0888F9B8D8C8D98131AC0B1
:1002B000E889F989808185FF15C09FB7F894EE8998
:1002C000FF896083E889F9898081837080648083F5
:1002D0009FBF81E090E0DF91CF911F910F91FF9040
:1002E000EF900895F62E0B8D10E00F5F1F4F0F73E8
:1002F0001127E02E8C8D8E110CC00FB607FCFACFA3
:10030000E889F989808185FFF5CFCE010E94290116
:10031000F1CFEB8DEC0FFD2FF11DE35AFF4FF08273
:100320009FB7F8940B8FEA89FB8980818062CFCFD9
:10033000CF93DF93EC01888D8823B9F0AA89BB891C
:10034000E889F9898C9185FD03C0808186FD0DC007
:100350000FB607FCF7CF8C9185FFF2CF808185FF28
:10036000EDCFCE010E942901E9CFDF91CF91089511
:1003700090E0FC01E859FF4F2491FC01E255FF4F4A
:100380003491FC01E656FF4FE491EE23C9F022239D
:1003900039F0233001F1A8F4213019F1223029F18C
:1003A000F0E0EE0FFF1FEA57FF4FA591B4918FB712
:1003B000F894EC91611126C030953E233C938FBF99
:1003C00008952730A9F02830C9F0243049F78091EA
:1003D00080008F7D03C0809180008F7780938000A4
:1003E000DFCF84B58F7784BDDBCF84B58F7DFBCF26
:1003F0008091B0008F778093B000D2CF8091B00011
:100400008F7DF9CF3E2BDACF3FB7F8948091190159
:1004100090911A01A0911B01B0911C0126B5A89BD7
:1004200005C02F3F19F00196A11DB11D3FBFBA2F86
:10043000A92F982F8827BC01CD01620F711D811D46
:10044000911D42E0660F771F881F991F4A95D1F7CB
:1004500008958F929F92AF92BF92CF92DF92EF92C8
:10046000FF926B017C010E9404024B015C01C114EC
:10047000D104E104F104B9F00E9404026819790979
:100480008A099B09683E73408105910580F321E04C
:10049000C21AD108E108F10888EE880E83E0981EA0
:1004A000A11CB11CE4CFFF90EF90DF90CF90BF90E4
:1004B000AF909F908F9008950F931F93CF93DF93EA
:1004C000082F162FD42FC8E06D2F661F6627661FD2
:1004D000802F0E94B801DD0F61E0812F0E94B801DA
:1004E00060E0812F0E94B801C15071F7DF91CF9178
:1004F0001F910F9108950F931F93CF93DF9300D017
:10050000CDB7DEB789836A830DEE11E060E0F801B4
:1005100082810E94B8014981F801648180810E9432
:100520005C024A81F801648180810E945C0261E082
:10053000F80182810F900F90DF91CF911F910F9161
:100540000C94B801CF93DF93C1E0D0E08091F30128
:100550009091F4018C179D0734F060E08C2F0E947D
:100560007B022196F3CFDF91CF9108951F920F92D6
:100570000FB60F9211242F933F934F935F936F9376
:100580007F938F939F93AF93BF93EF93FF9380E5F8
:1005900091E00E942901FF91EF91BF91AF919F914E
:1005A0008F917F916F915F914F913F912F910F901C
:1005B0000FBE0F901F9018951F920F920FB60F92BB
:1005C00011242F938F939F93EF93FF93E0916001FA
:1005D000F09161018081E0916601F091670182FDF7
:1005E0001BC09081809169018F5F8F7320916A0198
:1005F000821741F0E0916901F0E0E05BFE4F958FDA
:1006000080936901FF91EF919F918F912F910F90AE
:100610000FBE0F901F9018958081F4CF1F920F92FC
:100620000FB60F9211242F933F938F939F93AF9305
:10063000BF938091150190911601A0911701B0917F
:1006400018013091140123E0230F2D3758F501963E
:10065000A11DB11D209314018093150190931601E3
:10066000A0931701B09318018091190190911A017C
:10067000A0911B01B0911C010196A11DB11D809399
:10068000190190931A01A0931B01B0931C01BF9113
:10069000AF919F918F913F912F910F900FBE0F902F
:1006A0001F90189526E8230F0296A11DB11DD2CFE9
:1006B000CF93DF93E0E5F1E01382128288EE93E0BE
:1006C000A0E0B0E084839583A683B78386E091E0C1
:1006D0009183808385EC90E09587848784EC90E01B
:1006E0009787868780EC90E0918B808B81EC90E0FF
:1006F000938B828B82EC90E0958B848B86EC90E0E0
:10070000978B868B118E128E138E148ECDEED1E0C8
:1007100087E090E09983888386E090E09B838A83DA
:1007200085E090E09D838C8387E00E948C008A8125
:100730000E948C008C810E948C0061E08A81DF9194
:10074000CF910C94B801CF93DF93CDB7DEB72C9740
:100750000FB6F894DEBF0FBECDBF789484B582602B
:1007600084BD84B5816084BD85B5826085BD85B555
:10077000816085BD80916E00816080936E001092D3
:10078000810080918100826080938100809181004E
:1007900081608093810080918000816080938000DF
:1007A0008091B10084608093B1008091B00081603D
:1007B0008093B00080917A00846080937A00809169
:1007C0007A00826080937A0080917A0081608093C1
:1007D0007A0080917A00806880937A001092C1003C
:1007E000E0916001F091610182E08083E0915C0121
:1007F000F0915D011082E0915E01F0915F0180E176
:10080000808310926801E0916401F091650186E0B7
:100810008083E0916201F091630180818061808337
:10082000E0916201F0916301808188608083E091B2
:100830006201F0916301808180688083E0916201B0
:10084000F091630180818F7D8083EDE1F1E085E4AB
:1008500091E0119211928E179F07D9F76FE08AE00D
:100860000E947B0288E090E09093F4018093F30172
:1008700060E08FE00E947B0267E08BE00E947B02D9
:1008800060E089E00E947B020E94A20261E08CE0AD
:100890000E947B0211E068E4812F0E947B026EE1DE
:1008A00070E080E090E00E9429020E94A2021F5F97
:1008B000193089F766E088E00E947B026EE170E003
:1008C00080E090E00E9429020E94A20218E061E00C
:1008D000812F0E947B026EE170E080E090E00E9438
:1008E00029020E94A202115091F711E061E0812FCC
:1008F0000E947B026EE170E080E090E00E9429029D
:100900000E94A2021F5F193089F766E088E00E940A
:100910007B026EE170E080E090E00E9429020E947C
:10092000A20218E068E4812F0E947B026EE170E071
:1009300080E090E00E9429020E94A202115091F7EB
:1009400060E381E00E947B026EE170E080E090E075
:100950000E9429020E94A2020E94A2026EE170E09F
:1009600080E090E00E94290264E6262E312C78EE89
:10097000472E73E0572E612C712CEAE08E2E912CBD
:100980008091450190914601880F991FFC01E35E1B
:10099000FE4F00811181012E000C220B330B409180
:1009A0004701509148016091490170914A01401BF3
:1009B000510B620B730B40934701509348016093B6
:1009C000490170934A0127E420937C0020917A002A
:1009D000206420937A0020917A0026FDFCCF30918C
:1009E000780020917900835E9E4F232732272327AA
:1009F000DC012D933C932091450130914601F90192
:100A0000EE0FFF1FE35EFE4F60817181072E000C29
:100A1000880B990BC0904701D0904801E0904901A4
:100A2000F0904A016C0D7D1D8E1D9F1D6093470146
:100A3000709348018093490190934A012F5F3F4F83
:100A4000243131050CF0F6C0309346012093450166
:100A500024E130E040E050E00E945906B9016A50BC
:100A6000710980914E0190914F01861797070CF004
:100A7000E6C070934F0160934E0120914E0130917A
:100A80004F01032E000C440B550B2A50310941092C
:100A90005109A4E6B0E00E949A06A30192010E94C7
:100AA0007B06253631050CF0D6C030934D012093DE
:100AB0004C0180914C0190914D0197FF04C0109220
:100AC0004D0110924C0180914B01853108F49AC080
:100AD00000914C0110914D01809100019091010114
:100AE0000817190709F48EC0109301010093000143
:100AF000B2E1B09F7001B19FF00C11240E94A202DC
:100B0000C801B1010E94B40678876F832CE92603DF
:100B1000C001279F900D1124800F911FB4010E94E6
:100B2000B4067A8769879C878B87C70168EE73E074
:100B30000E94B4069B017A836983C701B4010E94B5
:100B4000B4064CE94203C001439F900D1124860F67
:100B5000971FB4010E94B4067C836B839E838D83B0
:100B60007E0187E0E80EF11C8E010F5F1F4FAA2463
:100B7000A394B12C92E0C92ED12CD70114968D915B
:100B80009C9115970A9721F415961C921E92149722
:100B9000F801848195810A9711F415821482F2E09C
:100BA000AF16B10409F05CC0D7011496ED91FC9129
:100BB000E458FF4F6491606886E00E947B0261E028
:100BC00070E080E090E00E942902D8011496ED9137
:100BD000FC91E458FF4F6491606882E00E947B02C0
:100BE000BFEFAB1ABB0AE1E0CE1AD108F2E0EF1A70
:100BF000F108025011092FEFC216D20609F0BDCF3D
:100C000010924B0180914B018F5F80934B0161E00B
:100C100070E080E090E00E94290280E090E0892B63
:100C200009F4AECE0E941501882309F4A9CE0E94D2
:100C30000000A6CE109246011092450109CF89010D
:100C4000065F1F4F081719070CF017CF10934F01BD
:100C500000934E0112CF30924D0120924C0129CFCA
:100C6000C114D10421F48F819885892B59F0D701C3
:100C70001496ED91FC91E458FF4F649184E08A0D45
:100C80000E947B0261E070E080E090E00E94290217
:100C9000C114D10429F489819A81892B09F4A0CF48
:100CA000D8011496ED91FC91E458FF4F64918A2D80
:100CB00095CFA1E21A2EAA1BBB1BFD010DC0AA1FD6
:100CC000BB1FEE1FFF1FA217B307E407F50720F0B5
:100CD000A21BB30BE40BF50B661F771F881F991F30
:100CE0001A9469F760957095809590959B01AC0179
:100CF000BD01CF010895052E97FB1EF400940E94BC
:100D0000920657FD07D00E94590607FC03D04EF407
:100D10000C94920650954095309521953F4F4F4F3A
:100D20005F4F089590958095709561957F4F8F4F97
:100D30009F4F08950E94A506A59F900DB49F900D0A
:100D4000A49F800D911D11240895A29FB001B39F0F
:100D5000C001A39F700D811D1124911DB29F700DC4
:100D6000811D1124911D089597FB072E16F4009400
:100D700007D077FD09D00E94C80607FC05D03EF4D5
:100D8000909581959F4F0895709561957F4F089537
:100D9000AA1BBB1B51E107C0AA1FBB1FA617B707A1
:100DA00010F0A61BB70B881F991F5A95A9F78095BD
:100DB0009095BC01CD010895EE0FFF1F0590F491B1
:080DC000E02D0994F894FFCF27
:100DC8006500000000004B01AB00D8009801090144
:040DD800E700FB0035
:00000001FF
